:020000040800F2
:10000000404C0020AD020008C55F0008EF28000842
:10001000C35F000841080008856F00080000000069
:10002000000000000000000000000000A5690008BA
:100030000B0B000800000000D76600082D6A0008BE
:10004000C7020008C7020008C7020008C70200086C
:10005000C7020008C7020008C7020008C70200085C
:10006000C7020008C7020008C7020008C70200084C
:10007000C7020008C7020008C7020008C70200083C
:10008000C7020008C7020008C7020008C70200082C
:10009000C7020008C7020008C7020008C70200081C
:1000A000C7020008C7020008C7020008C70200080C
:1000B000C7020008856A0008BD6A0008C702000878
:1000C000C7020008C7020008C7020008C7020008EC
:1000D000C7020008196F0008C7020008C70200081D
:1000E000C7020008C7020008C7020008C7020008CC
:1000F000C7020008C7020008C7020008C7020008BC
:10010000C7020008C7020008C7020008C7020008AB
:10011000C7020008C7020008C7020008C70200089B
:10012000C7020008250A0008C7020008C702000825
:10013000C7020008C7020008C7020008C70200087B
:10014000C7020008C7020008C7020008C70200086B
:10015000C7020008C7020008C7020008C70200085B
:10016000C7020008C7020008C7020008C70200084B
:10017000C7020008C70200083D090008000000008F
:10018000C7020008C7020008C7020008C70200082B
:10019000C7020008C7020008C7020008C70200081B
:1001A000C7020008C7020008C702000800F002F8F2
:1001B00000F06DF80AA090E8000C82448344AAF194
:1001C0000107DA4501D100F062F8AFF2090EBAE892
:1001D0000F0013F0010F18BFFB1A43F0010318477B
:1001E000C0EC0000E0EC00000A444FF0000C10F8F6
:1001F000013B13F0070408BF10F8014B1D1108BFA5
:1002000010F8015B641E05D010F8016B641E01F844
:10021000016BF9D113F0080F1EBF10F8014BAD1C94
:100220000C1B09D16D1E58BF01F801CBFAD505E0B2
:1002300014F8016B01F8016B6D1EF9D59142D6D30C
:10024000704700000023002400250026103A28BF34
:1002500078C1FBD8520728BF30C148BF0B60704738
:10026000642900F0B580752900F0B280782900F08B
:10027000EB80632900F08F82732900F094820020C4
:1002800070471FB508F0CEFE1FBD10B510BD00F0C1
:10029000A5FA1146FFF7F5FF07F004F900F0C3FADD
:1002A00003B4FFF7F2FF03BC06F074FE0948804771
:1002B00009480047FEE7FEE7FEE7FEE7FEE7FEE748
:1002C000FEE7FEE7FEE7FEE704480549054A064B60
:1002D00070470000316A0008AD0100084046002068
:1002E000404C00204048002040480020704700005B
:1002F0000FB4044910B503AA029800F059FA10BCD3
:100300005DF814FB640000200FB41CB5074B06AA6F
:100310007B4469460090059800F01BFA002069466E
:1003200000F02AFA1CBC5DF814FB00006504000014
:1003300070B5044685690068C10601D5302600E025
:100340002026C00707D070BDD4E901213046904770
:10035000206A401C20626D1EF6D570BD70B5044643
:1003600085690078C00707D170BDD4E9012120203C
:100370009047206A401C20626D1EF6D570BD70B596
:100380000C460546012A05D02878800600D5EA6982
:10039000002302E0012305E05B1C934202D2E05CF3
:1003A0000028F9D1A869E618C01AA861286A18447B
:1003B00028622846FFF7BCFF04E0D5E9012114F8C4
:1003C000010B9047B442F8D32846FFF7C7FF70BD32
:1003D0002DE9F0410646002410687529314616A51E
:1003E00010D0AFF30080002802DA404213A507E0E6
:1003F00031688A0701D512A502E0490704D511A585
:10040000012401E0AFF3008000210A2206F1240755
:1004100009E0B0FBF2FCB0FBF2F302FB1C00303051
:1004200078541846491C0028F3D123462A46304602
:10043000BDE8F04100F02EB9000000002D000000E2
:100440002B0000002000000070B504460D46214638
:100450001068AFF300802188090502D50F4A7A445D
:1004600002E00E4A7A440E32002104F1240305E032
:1004700000F00F060009965D5E54491C0028F7D174
:1004800020780023000704D5702D02D009B1022383
:1004900011322046BDE8704000F0FCB899E600003B
:1004A0002DE9F05F894604464FF0000ADFF874B189
:1004B000FB44C0F820A02046E1688847002874D09B
:1004C000252806D0D4E901219047206A401C2062EB
:1004D000F1E700265F462046E16888472028054668
:1004E00007DB312D05D2781910F8200C08B106432E
:1004F000F1E7B00701D526F00406C4F81CA00027D8
:10050000C4F818A02A2D09D0284606F03CFD38B3BF
:1005100004EB8708303DC8F8185019E059F8041B5F
:10052000204604EB87029161E1688847012F054668
:1005300018D1E069002820DA26F020061DE0D8F85E
:10054000180000EB800005EB40003038C8F81800B8
:100550002046E1688847054606F015FD0028EED1E3
:10056000012F0AD02E2D08D12046E16888477F1C34
:100570000546022F46F02006C4DBA069002803DAF6
:10058000404246F00106A061F00701D026F01006B7
:100590006C2D0BD0682D09D04C2D39D06A2D35D05B
:1005A000742D35D07A2D33D016E038E0E1682F462F
:1005B00020468847B842054609D16C2F26D04FF413
:1005C0008060E168064320468847054604E06C2FBA
:1005D0001AD04FF4807006430DB3A5F141001928DD
:1005E00002D8203546F400664A4629462046266051
:1005F0004E46FFF735FE80B101280BD0F61D26F0E0
:10060000070000F1080956E74020E4E78020D8E71A
:100610000020D6E706F104094DE7284652E7206A94
:10062000BDE8F09F6FE6000010B5203AC0F00B80E7
:10063000B1E81850203AA0E81850B1E81850A0E8E6
:100640001850BFF4F5AF5FEA027C24BFB1E8185040
:10065000A0E8185044BF18C918C0BDE810405FEAB0
:10066000827C24BF51F8043B40F8043B08BF70472C
:10067000D20728BF31F8023B48BF11F8012B28BF31
:1006800020F8023B48BF00F8012B704770477047C5
:10069000704770472DE9F0470D469946924604464B
:1006A00000F124080168880604D5E06921F01001F2
:1006B000216000E00120A84201DD471B00E0002787
:1006C000A1697A1902EB0900081AA0612078C00616
:1006D00002D42046FFF72CFE002608E0D4E90121D1
:1006E0001AF806009047206A401C761C20624E458E
:1006F000F4DB2078C0060AD52046FFF719FE06E095
:10070000D4E9012130209047206A401C2062381E25
:10071000A7F10107F4DC07E0D4E9012118F805008E
:100720009047206A401C2062281EA5F10105F3DCD9
:100730002046FFF713FE2078000602D50220BDE810
:10074000F0870120FBE7000001694A1C026108787C
:10075000704700B58FB0CDE9013100210591054901
:100760007944CDE9031011466846FFF799FE0FB0B2
:1007700000BD0000E5FFFFFF0A6802F8010B0A60F8
:10078000704710B5436913B1AFF3008001E0FFF784
:10079000F6FD012010BD127800F124010A7000223C
:1007A0004A700122EDE711684FF0FF32E9E70000DF
:1007B000074B70B50D467B44FFF7CBFF0446284638
:1007C00000F008F810B14FF0FF3070BD204670BD4A
:1007D00043680000007B00F080007047754600F021
:1007E0002BF8AE4605006946534620F007008546C3
:1007F00018B020B5FFF768FDBDE820404FF00006B7
:100800004FF000074FF000084FF0000B21F00701F8
:10081000AC46ACE8C009ACE8C009ACE8C009ACE83B
:10082000C0098D46704710B50446AFF300802046DE
:10083000BDE81040FFF734BD00487047E045002098
:10084000FEE700002DE9F041074615460E460C482C
:1008500000F074FA0A4C0B48790120600020C4E9CA
:100860000101E901E160B101C4E90410A061204681
:1008700000F000FB206801680160BDE8F081000025
:100880000C450020000005502DE9F843804627481C
:1008900016460F4608990268002542F4800202605D
:1008A0000068234C00F480000090A4F140008463B1
:1008B000A063204820604FF00070C4E90105401398
:1008C000E560C4E904100011C4E90630400220626A
:1008D000042060620120C4E90A052046256300F077
:1008E000EDFB204600F016FC134984F83450A7B104
:1008F0003B4642462046009600F089FB206801688E
:1009000041F01001016000221146392000F012FF71
:10091000BDE8F843392000F001BF01B0334642463C
:10092000BDE8F043024800F031BC0000303802401E
:100930004C4500202864024028000550014800F082
:1009400027BA00000C450020074806490160002135
:100950002022C0E90112C16001614161816100F0A2
:1009600089BA0000000005500C4500202DE9F04137
:100970001C4615460E46074600F040F84FF6FF703D
:1009800002F096F923462A463146384604F032FEF4
:10099000002123462A46084605F066FD0021084648
:1009A00004F0A6FD04F08AFF06480068016841F0E3
:1009B000010101600448016841F001010160BDE8E6
:1009C000F08100004C4500200000055010B50021CA
:1009D000084604F08DFD04F071FF064800680168C8
:1009E00041F0010101600448016841F0010101602A
:1009F00010BD00004C45002000000550074801686C
:100A000021F0010101600168C907FCD104480068B8
:100A1000016821F0010101607047000000000550ED
:100A20004C45002030B419481A4D1A4A0068184B3A
:100A3000184C603DB83A984202D91549543903E040
:100A4000A04203D912495839096804E0A84201D9E3
:100A5000516800E0116811F4006F15D04FF4006187
:100A6000984202D90A484C3803E0A04203D908480A
:100A70005038016004E0A84201D9D16000E09160E3
:100A80000548406830BC004730BC70474C450020EA
:100A900058640240B86002407C00002001681823BE
:100AA000CAB2103AB2FBF3F2054B6FF30901032A05
:100AB0009B5C436500D9091D01650846704700002D
:100AC0005A90000810B5046863608368402B03687F
:100AD00003D099600068C26010BD9A600068C16070
:100AE00010BD30B50468256825F4802525600468AC
:100AF00063608368402B036803D099600068C2601C
:100B000030BD9A600068C16030BD704770B5B3F504
:100B1000804F05D06FF0704140F82210002070BD6A
:100B200050F82230084C2340D1E9004544EA05142E
:100B30008D688E892D0245EA064589692C430C4350
:100B40001C4340F82240E9E70000F0CFF0B50C6804
:100B500050F82450194A1540D1E90123D1E903671F
:100B60001A433E4332434E6932438E693243CE6963
:100B700032430E6A32434E6A32438E6A3243CE6A41
:100B80003243CE6B32430E6B32434E6B32432A43B9
:100B9000082B01D142F0400240F824204A6BB2F504
:100BA000801F08D10A6832B14FF480720A6104498B
:100BB0000268114301600020F0BD00008000E0FFEA
:100BC00000011000F0B500EB820253688E8903F03B
:100BD0004044D1E9003543EA05138D682D0245EA0A
:100BE00006452B430E8A0D4D05EB065633430E7D0D
:100BF0006F0107EB066633438E693343234353602B
:100C00000268D20207D54268098A22F4700205EB15
:100C10000151114341600020F0BD00000000F0FFD1
:100C200030B5D1E901231A43D1E9033423431A43F0
:100C30004B690D681A438B691A43D1E90734012DBA
:100C4000496A05686FF30E0505D01A4322430A432B
:100C50002A43026008E0234329430B4341680360B1
:100C60006FF30E010A434260002030BD426942EA40
:100C70004101416100207047F8B514460546D1E9AD
:100C8000000210438A686FF01F03C96803EB421229
:100C900042EA412108430090286100F08DFB06469E
:100CA00009E0601C07D024B100F086FB801BA04245
:100CB00001D90320F8BDA8698006F2D40020F8BD50
:100CC000F0B56FF00F05D1E9003405EB04145B1E9D
:100CD0002E0123438C682F0306EB04244FEA054CB6
:100CE00023430D8A8E8ACC68097E4FF07F4E07EB36
:100CF00005450CEB06560EEB0161012A0CD082680B
:100D00003F1107EB043423432B43334302F070427B
:100D10000B43134383600FE0C2682B430B4302F085
:100D200070428168134301F070422103A1F58051A4
:100D300031431143C36081600020F0BD10B504460B
:100D400000F0EFF80020E06384F8250084F8240028
:100D500010BD704710B506F05BF90A49D1F8800262
:100D600068B10020C1F8800207490878401C08706B
:100D700006480068C16841F00101C16010BD012052
:100D8000F0E70000008040427C0000200C4500207D
:100D900070B50446006881684FF0040649074FF0BB
:100DA000000516D50169490713D5C16821F0040172
:100DB000C16020684661E06B40F00200E06384F8A7
:100DC000256084F82450A06B00F04FF92046FFF70F
:100DD000C0FF20688168890717D50169890714D584
:100DE000C16821F00201C160216802204861E06B06
:100DF00040F00100E06384F8256084F82450A06B83
:100E000000F033F92046FFF7A4FF20688168C90687
:100E100009D50169C90606D51021416184F824501D
:100E2000204600F07DF82068816809070ED5016929
:100E300009070BD5C16821F00801C16021680820AD
:100E4000486184F82450204600F0E0F8206881686A
:100E5000C9070ED00169C9070BD0C16821F0010193
:100E6000C16021680120486184F824502046FFF7C2
:100E700071FF70BD10B5040003D094F8250010B1C7
:100E800004E0012010BD204600F04CF8022084F858
:100E900025002068016840F6F8729143016061689E
:100EA00060690143D4E9030210430143A068014390
:100EB000A0690143206A0143206802681143016070
:100EC0006068102805D1E17FE06961F31F60134974
:100ED00088612068C16841F01001C1602068C16864
:100EE00041F00801C1602068C16841F00101C160A2
:100EF0002068C16841F00401C1602068C16841F008
:100F00000201C1602068016841F480410160002055
:100F1000E063012084F82500002010BD000005508A
:100F200070477047334800B5016887B041F0010150
:100F30000160006800F0010005902E48001F016864
:100F400041F001010160016801F0010105910168B2
:100F500041F002010160016801F0020105910168A0
:100F600041F004010160016801F00401059101688C
:100F700041F008010160016801F008010591016874
:100F800041F0800101600068694600F08000059032
:100F90004020009002200190012002900320039045
:100FA0000D200490144800F00FF94FF46070009089
:100FB0006946124800F008F94FF43C600090694619
:100FC0000F4800F001F90820009069460D4800F034
:100FD000FBF84FF48070009069460B4800F0F4F87D
:100FE000002211464E2000F0A5FB4E2000F096FB9B
:100FF00007B000BD34380240000002400004024047
:1010000000080240000C0240001C0240704770B50E
:10101000044690F83400049D012808D0012084F88B
:10102000340020680668360303D4122605E0022047
:1010300070BD0668360302D5222684F8356006683E
:1010400026F0010606602068066846F480260660E1
:10105000206803612B462046FFF734FD20680168B5
:1010600041F001010160002070BD2DE9F04104460E
:101070000068016821F00101016000F09DF905465A
:1010800000264FF47A770FE000F096F9401BB84243
:101090000AD954F84C0F40F0200044F818090320F6
:1010A00026706070BDE8F08120680068C007EBD151
:1010B00004F8346F012060700020F3E770B504007D
:1010C00025D094F83500022821D02068016821F04D
:1010D00001010160206800250560206845602068E6
:1010E00085602068C560206805612168212048610D
:1010F0002046FFF7D3FC94F854203F2191408160B3
:10110000E56484F8355084F83450002070BD012027
:1011100070BD000070B504001AD00220636A84F824
:10112000350021680A6818480240D4E901052843BF
:10113000D4E903563543284365692843A569284304
:10114000E5692843256A28431043042B02D005E0B3
:10115000012070BDD4E90B231A43104308602268B4
:101160005069616A20F007000843042901D1A16A8F
:10117000084350612046FFF791FC0020E064012005
:1011800084F83500002070BD3F8010F070B5044633
:1011900090F83400012814D0012084F83400022093
:1011A00084F835002068056825F0010505602046B3
:1011B000FFF797FC2068016841F001010160002001
:1011C00070BD022070BD00002DE9F84FDFF8A0913E
:1011D000002209F1040A0AF1040B4FF00F080BF189
:1011E000040E01260B6896403340B34271D14C681F
:1011F000022C01D0122C11D1D40800EB84073D6AD7
:101200005407E40E08FA04FC25EA0C05D1F810C0D6
:101210000CFA04FC4CEA050CC7F820C0076854001F
:10122000032591F804C0A5400CF0030CAF430CFA61
:1012300004FC4CEA070CC0F800C04F68012F05D031
:10124000022F03D0112F01D0122F11D18768D1F8AE
:101250000CC0AF430CFA04FC4CEA070CC0F808C001
:101260004768B7430E79C6F3001696403E43466082
:10127000C668AE438D68A5403543C5604C68E40040
:101280006FD53C4C256845F480452560246822F0E4
:10129000030504F480440094374C2E19D6F80878DE
:1012A0009407250F08FA05F4A743344CA04201D156
:1012B00000242EE0324CA04201D1012429E0314C1F
:1012C000A04201D1022424E02F4CA04202D10324E9
:1012D0001FE046E02D4CA04201D1042419E02C4C23
:1012E000A04201D1052414E02A4CA04201D10624D9
:1012F0000FE0294CA04201D107240AE0274CA0426C
:1013000001D1082405E0264CA04201D1092400E0C7
:101310000A24AC403C43C6F80848D9F800404D4682
:101320004E689C43F60300D51C432C60DAF800405D
:1013300055464E689C43B60300D51C432C60DBF831
:1013400000405D464E689C43F60200D51C432C606D
:10135000DEF8004075464E689C43B60200D51C433B
:101360002C60521C102AFFF43CAFBDE8F88F00003F
:10137000003C01404438024000300140000002407F
:101380000004024000080240000C0240001002402D
:101390000014024000180240001C024000200240DD
:1013A000002402400069084000D0012070470AB1C3
:1013B000816170470904FBE701480068704700003D
:1013C0005800002002480168491C01607047000075
:1013D000580000200B4810B5016841F4007101600D
:1013E000016841F480610160016841F4807101602D
:1013F000052000F0BFF90F2000F006F800F08AF990
:10140000002010BD003C024010B5044600F060FC16
:101410004FF47A71B0FBF1F000F0DAFF00222146C0
:10142000501E00F087F9002010BD2DE9F041044660
:1014300090F8A00015460F4601281DD0012684F81B
:10144000A060022084F8A10005EB850000EBC50038
:1014500004EB800034223830FFF7E6F82A4639469C
:10146000204604F0FDFC2068466284F8A16000205C
:1014700084F8A000BDE8F0810220FBE770B504000D
:1014800004D094F8A100002510B106E0012070BD41
:1014900084F8A050204600F06FF8022084F8A100E4
:1014A0002068816921F070418161D4E90110014314
:1014B000D4E903021043014320688269114381612A
:1014C000206882682B490A408260A08A0204206852
:1014D0008368A6693343134383602068C2680A4067
:1014E000C260A08B02042068C368266A334313439A
:1014F000C360206802690A400261A08C020420686F
:101500000369A66A334313430361206842690A40B2
:101510004261A08D010420684269236B1A430A438B
:10152000426194F83500020294F836000104206804
:10153000C36A03F07F43C3622068C36A94F83460CF
:10154000114333430B43C3622068416B41F00401F4
:1015500041632068416B41F0020141632068816969
:1015600041F001018161C4F8A450012084F8A10078
:10157000002070BD00F800F030B5364887B0002577
:10158000016841F080610160006800F080600590B2
:1015900030481438016841F400010160016801F429
:1015A00000010591016841F002010160016801F04C
:1015B00002010591016841F020010160016801F01C
:1015C00020010591016841F040010160016801F0CE
:1015D00040010591016841F080010160016801F05E
:1015E00080010591016841F4807101600068032465
:1015F00000F480700590202000900120CDE90204C5
:10160000019069461448FFF7DFFD4FF480600090B9
:101610000220CDE901050E20CDE9034069460F48BF
:10162000FFF7D2FD4FF40C60009069460C48FFF7BD
:10163000CBFD4FF47E40009069460A48FFF7C4FD99
:1016400040F2F760009069460748FFF7BDFD07B01C
:1016500030BD000044380240000402400014024043
:1016600000180240001C02400020024070B50446F1
:1016700090F8A0000E46012820D0012584F8A05043
:10168000022084F8A10003EB830000EBC30004EB0D
:10169000800141F8386F886A3044C1E90102C86AA4
:1016A0001044C8601A46204604F0DAFB2068456200
:1016B00084F8A150002084F8A00070BD022070BD05
:1016C0002DE9F041044690F8A0000F4601281FD0F4
:1016D000012584F8A050022084F8A10003EB8300C8
:1016E00000EBC30004EB80010026E1E90E67204611
:1016F000C1E90262C1E90A721A4604F0B1FB20682E
:10170000456284F8A15084F8A0600020BDE8F08113
:101710000220FBE708B50020009008BD00F01F0282
:10172000012191404009800000F1E020C0F8001143
:1017300070470000F0B40E4B1B68C3F30223C3F1E3
:101740000704042C00D904241D1D072D01D20023F9
:1017500000E0DB1E012606FA04F56D1E0D409D40DB
:101760009E40761E164045EA0601F0BC04F02BBCF4
:101770000CED00E0064A00F0070110684FF6FF0389
:10178000184040EA012003490843106070470000F8
:101790000CED00E00000FA052DE9F8431D48016852
:1017A00041F0805101600068012700F080500090F6
:1017B000380490FAA0F0DFF86080B0FA80F048F8C2
:1017C0002070FFF7F9FD04464FF47A75134E04E0DC
:1017D000FFF7F2FD001BA84213D87068C003F7D5CD
:1017E0004FF4003090FAA0F0B0FA80F048F8207082
:1017F000FFF7E2FD044607E0FFF7DEFD001BA8420D
:1018000002D90320BDE8F88370688003F4D5002076
:10181000F8E700004038024000000E42007000402F
:101820002DE9F84F04460068DFF878829E4DC10725
:1018300047F6C07A4FF0E0464FF0010B4FF0000939
:1018400001D180074BD59949C1F86890FFF7B4FDE5
:10185000074604E0FFF7B0FDC01B64287ED8286867
:101860000001F7D420789249C0070DD09AFAAAF265
:101870006068B2FA82F2904096FAA6F3A268B3FAD0
:1018800083F39A40104308602078800718D50868D1
:1018900096FAA6F200F0E040B2FA82F2D040626816
:1018A000237B920142EA036242EA00700860D8F8A2
:1018B0000010E26921F01F01521E1143C8F8001008
:1018C0007A49C1F868B0FFF777FD074604E0FFF7F3
:1018D00073FDC01B642841D828680001F7D5206833
:1018E000410701D4000776D57049C1F87090FFF721
:1018F00063FD074604E0FFF75FFDC01B64282DD899
:101900002868C0438000F6D520786A4F40074FF022
:10191000706C29D5386896FAA6F100F0E040B1FA6B
:1019200081F1C8409AFAAAF22169B2FA82F2914092
:101930009CFAACF36269B3FA83F39A40114396FAC6
:10194000A6F2B2FA82F2904001433960D8F8001052
:101950006FF0FF0321F4F851226A00E079E003EB15
:1019600002221143C8F800102078000723D53868F8
:101970009CFAACF100F07060B1FA81F1C8409AFABB
:10198000AAF22169B2FA82F291409CFAACF2B2FA60
:1019900082F29040014396FAA6F2A069B2FA82F26E
:1019A000904001433960D8F80010626A21F4403158
:1019B0001143C8F800103D49C1F870B0FFF7FCFCB6
:1019C000064604E0FFF7F8FC801B642841D828682D
:1019D000C0438000F6D42078800651D532484F4667
:1019E0004030016841F0805101600068324E00F0E3
:1019F00080500090306840F480703060FFF7DCFC6D
:101A0000054604E0FFF7D8FC401B642821D8306865
:101A1000C005F7D5264E143E3068218D00F4407085
:101A200001F4407188422BD03068244920F4407082
:101A3000C1F800B00F603060800710D5FFF7BCFC24
:101A4000054641F2883707E0FFF7B6FC401BB84275
:101A500002D90320BDE8F88F30688007F4D5A06A6A
:101A60001149C0F301220831032A13D0086820F479
:101A7000F81008603068218DC1F30B010843306015
:101A80002078C00604D50E4994F82C00C1F8E00176
:101A90000020DFE70A680B4B22F4F81218400243DB
:101AA0000A60E7E78C3802400038024000004742F5
:101AB000843802408838024000700040400E47429F
:101AC00000104742FFFCFF0F2DE9F05FDFF8F8A19F
:101AD00004460F46DAF80000DFF8F08100F00F024C
:101AE000C8B27A49814641F2883608F10808BA42FC
:101AF00061D202468AF80020DAF8000000F00F00F8
:101B0000B8427DD12078800707D5D8F80020A36897
:101B100022F0F0021A43C8F800202078C0072DD028
:101B2000606801281AD002281BD0032819D0096840
:101B30008907002964DAD8F80010474621F003012C
:101B40000143C8F80010FFF737FC0546606801281C
:101B50000FD0022818D003281CD027E00968890379
:101B6000E7E709688901E4E7FFF726FC401BB0427C
:101B700058D83868C0F381000128F5D188E0FFF714
:101B80001BFC401BB0424DD83868C0F381000228CE
:101B9000F5D17DE03868FFF70FFC401BB042F9D962
:101BA00040E0FFF709FC401BB0423BD8386810F01A
:101BB0000C0FF6D16CE02078800707D5D8F800200C
:101BC000A36822F0F0021A43C8F800202078C0076A
:101BD0004CD06068012828D0022829D0032827D0BB
:101BE00009688907002949DAD8F8002022F00302A1
:101BF0000243C8F80020FFF7DFFB0546606800E0FD
:101C00003CE001281DD0022829D0032838D0B34653
:101C10004646306810F00C0F28D0FFF7CDFB411B73
:101C20005945F6D90320BDE8F09F09688903D9E733
:101C300009688901D6E7FFF7BFFB411B594502D967
:101C4000F0E7B34646463068C0F381000128F2D180
:101C50000CE0FFF7B1FB411B594502D9E2E7B3465F
:101C600046463068C0F381000228F2D18AF800901D
:101C7000DAF8000000F00F00B84209D00120D2E7E6
:101C800044462068FFF798FB401BB042F9D9C9E7EA
:101C90002078400707D5D8F80010E26821F4E05119
:101CA0001143C8F800102078000708D5D8F80010B4
:101CB000226921F4604141EAC201C8F800100F20F6
:101CC000FFF7A2FB0020AEE7003C024000380240D4
:101CD00010B500F043F808490968F02292FAA2F220
:101CE00001F0F001B2FA82F2D140044A515CC840DE
:101CF0000349086010BD0000083802404A900008FF
:101D00004400002010B5FFF7E3FF074909684FF4CE
:101D1000E05292FAA2F201F4E051B2FA82F2D1401A
:101D2000024A515CC84010BD083802404A90000881
:101D300010B5FFF7CDFF074909684FF4604292FAEA
:101D4000A2F201F46041B2FA82F2D140024A515C3F
:101D5000C84010BD083802404A90000830B5194804
:101D6000006810F00C01184812D0184C04290ED04D
:101D700008290DD1134A121F1168136801F03F01A1
:101D80005D0247F6C07304D5B4FBF1F003E02046D2
:101D900030BDB0FBF1F01168194093FAA3F3B3FA28
:101DA00083F3D940484311684FF4403292FAA2F2CB
:101DB00001F44031B2FA82F2D140491C4900B0FB33
:101DC000F1F030BD083802400024F40040787D0175
:101DD000F0B51F4E15460C461D4B0021022203276D
:101DE000283E0028186887B019D040F00400186019
:101DF000186800F00400059010020090CDE9012160
:101E0000CDE9037169461348FFF7DEF9306844EA0B
:101E1000C50120F078400843306007B0F0BD40F0C5
:101E200001001860186800F0010005904FF4807000
:101E30000090CDE90121CDE9037169460648FFF71D
:101E4000C3F930682C4320F0EC602043E4E7000045
:101E50003038024000080240000002402DE9F84FEF
:101E600004460078DFF8FCA2BF4DC0074FF0000623
:101E700048D0DAF800105046C1F38101012908D09A
:101E80000068C0F3810002280AD1281D00684002C2
:101E900006D52868800335D56068002873D031E006
:101EA000DFF8C49209F1020989F80060FFF784FAAB
:101EB000074641F2883804E0FFF77EFAC11B41452E
:101EC0007AD828688003F7D4207989F80000606800
:101ED00060B1FFF771FA074604E0FFF76DFAC11B26
:101EE0004145EDD828688003F7D50BE0FFF764FA89
:101EF000074604E0FFF760FAC11B4145E0D82868B7
:101F00008003F7D42078DFF86492800744D5DAF8AC
:101F10000010504611F00C0F4FF0F80809D000687F
:101F2000C0F3810002280BD18E48001F00684002D8
:101F300006D42868800714D5E068012823D110E072
:101F4000E068D0B10120C9F80000FFF735FA074674
:101F500004E0FFF731FAC01B6428B1D82868800775
:101F6000F7D5286898FAA8F22169B2FA82F220F02F
:101F7000F8009140084328600EE0C9F80060FFF7C0
:101F80001BFA074605E0EAE0FFF716FAC01B6428D3
:101F900012D828688007F7D42078000725D5DFF805
:101FA000C4817348616908F16C0881B10121016045
:101FB000FFF702FA074605E07EE0FFF7FDF9C01BD8
:101FC000642879D8D8F800008007F6D50DE00660BF
:101FD000FFF7F2F9074604E0FFF7EEF9C01B6428AB
:101FE0006AD8D8F800008007F6D42078400753D587
:101FF0005C483830016841F0805101600068DFF8CA
:10200000748100F080500090D8F8001041F4807185
:10201000C8F80010FFF7D0F9074604E0FFF7CCF945
:10202000C01B642848D8D8F80000C005F6D5DFF8F2
:1020300034B10BF1680B8BF80060FFF7BDF9074670
:1020400041F2883804E0FFF7B7F9C11B41457ED85B
:10205000DBF800008007F6D4207A8BF80000A06837
:1020600068B1FFF7A9F9074604E0FFF7A5F9C11B1E
:1020700041456CD8DBF800008007F6D50CE0FFF78F
:102080009BF9074604E0FFF797F9C11B41455ED86D
:10209000DBF800008007F6D4A069E8B3DAF8001096
:1020A000C1F3810102295AD0022806D0C9F8606024
:1020B000FFF782F904464DE049E04F46C9F86060F9
:1020C000FFF77AF9064604E0FFF776F9801B6428EB
:1020D0003DD828688001F7D4D4E90701084347F6C2
:1020E000C07191FAA1F1626AB1FA81F18A40A16AE4
:1020F0004FF0FF3303EB51014FF4403393FAA3F356
:10210000B3FA83F399400A4310434FF0706292FA96
:10211000A2F2B2FA82F200E01FE0E16A91400843C5
:102120001049091F086001203866FFF745F9044689
:1021300004E0FFF741F9001B642808D828688001F3
:10214000F7D50AE0FFF738F9001B642802D903200D
:10215000BDE8F88F28688001F4D40020F8E701205A
:10216000F6E700000838024000380240000047420D
:10217000800E47420070004070B50D46040003D049
:1021800094F82C0010B107E0012070BD002084F805
:102190002D00204600F012F8022084F82C00211DAA
:1021A0002068FEF73DFDD4E900022946FEF788FDD0
:1021B000012084F82C00002070BD0000304800B5DC
:1021C000016887B041F001010160006800F0010082
:1021D00005902B480838016841F00401016001684E
:1021E00001F004010591016841F0080101600168F6
:1021F00001F008010591016841F0100101600168DA
:1022000001F010010591016841F0200101600168B1
:1022100001F020010591016841F040010160006872
:10222000694600F0400005900D20009002200190CA
:1022300001200290032003900C2004901148FEF727
:10224000C3FF4CF20370009069460F48FEF7BCFFD5
:102250004FF68370009069460C48FEF7B5FF4FF6C5
:102260003F00009069460A48FEF7AEFF48F237107B
:10227000009069460748FEF7A7FF07B000BD0000C1
:102280003838024000080240000C024000100240B2
:10229000001402400018024010B5044690F82C00CB
:1022A000022809D0022084F82C002068FEF7DEFC0A
:1022B000012084F82C00002010BD70B5044690F871
:1022C0002C000D4602280CD0022084F82C00206837
:1022D000FEF7D2FC2868022804D0012084F82C00E4
:1022E000002070BD0520F9E770B515460E460400C4
:1022F00003D094F8490010B107E0012070BD002020
:1023000084F84800204600F01BF804F1080120681A
:10231000FEF71CFC3146A2682068FEF753FCD4E9A6
:1023200001022946236BFEF7F1FBA168206850F8F3
:10233000212042F0010240F82120002070BD000061
:102340001A4800B5016887B041F0010101600068DA
:1023500000F00100059015480838016841F00801B7
:102360000160016801F008010591016841F0100168
:1023700001600068694600F0100005904EF2B370ED
:1023800000900220019001200290032003900C2075
:1023900004900748FEF718FF4FF6807000906946DA
:1023A0000448FEF711FF07B000BD000038380240B6
:1023B000000C0240001002404FF0E02104280869A0
:1023C00003D020F004000861704740F00400FAE7F1
:1023D00010B5401EB0F1807F01D3012010BD4FF039
:1023E000E02460610F21601703F0EDFD0020A06183
:1023F00007202061002010BD7047704710B5040011
:1024000003D094F8390010B107E0012010BD00207E
:1024100084F83800204600F00DF8022084F83900D6
:10242000211D206804F064FB012084F8390000209D
:1024300010BD0000094808B5016841F002010160C3
:102440000068032200F00200009001211D20FFF728
:1024500071F9BDE808401D20FFF760B9403802401F
:102460000168CA6842F00102CA600068016841F070
:102470000101016000207047704770B50446006894
:1024800001694FF00005C943890715D4C168C943E4
:10249000890711D4E91E0161012020762068806936
:1024A0008007204602D0FFF7E7FF04E000F098F82D
:1024B000204600F096F8257620680169C94349074F
:1024C00017D4C168C943490713D46FF004010161EF
:1024D000022020762068806910F4407F204602D0D8
:1024E000FFF7CAFF04E000F07BF8204600F079F81F
:1024F000257620680169C943090716D4C168C94314
:10250000090712D46FF008010161042020762068C9
:10251000C0698007204602D0FFF7AEFF04E000F05C
:102520005FF8204600F05DF8257620680169C94310
:10253000C90617D4C168C943C90613D46FF0100186
:102540000161082020762068C06910F4407F204691
:1025500002D0FFF791FF04E000F042F8204600F0BF
:1025600040F8257620680169C943C90708D1C168C8
:10257000C943C90704D1891E0161204600F032F821
:1025800020680169C943090609D4C168C94309061D
:1025900005D46FF0800101612046FFF72DFF206810
:1025A0000169C943490609D4C168C943490605D42C
:1025B0006FF040010161204600F03CF8206801699D
:1025C000C94389060BD4C168C943890607D46FF093
:1025D000200101612046BDE87040FFF70EBF70BDCD
:1025E0007047704710B5084988420BD1074C08A0C6
:1025F0002178FDF77DFE0948018809A0FDF778FEE6
:102600000020207010BD0000904400207C000020BD
:102610006672616D653A25640D0A000008000020AD
:102620006A7065675F646174615F6C656E3A2564AA
:102630000D0A00007047704738B501680446086805
:10264000CA68C0F3000002F4807238B132B1086881
:1026500048680090E06B40F00100E06308684A6958
:10266000C0F3400002F0010238B132B10868486896
:102670000090E06B40F00400E06308684A69C0F332
:10268000800002F0010238B132B108684868009059
:10269000E06B40F00200E06308684A69C0F3C000E4
:1026A00002F0010238B132B1086848680090E06B6E
:1026B00040F00800E0630868C968C0F3401001F00A
:1026C000200118B111B1204604F09CFA206801687D
:1026D000C068C1F3C01100F0800019B110B12046EC
:1026E00004F09EFB21680868CA68C0F3801002F0FD
:1026F0004002012568B162B1CA68204622F040025A
:10270000CA6094F8391032290CD080F8395000F0A2
:10271000EDF8E06B002804D084F839502046FFF72C
:102720008AFF38BD222180F83910F0E770B5040027
:1027300004D094F83900002510B106E0012070BDE6
:1027400084F83850204600F021F8022084F839003F
:102750002068C16821F40051C160204604F0A6FA47
:102760002068016921F4904101612068416921F0EC
:102770002A0141612068C16841F40051C160E563EC
:10278000012084F83900002070BD000030B50446F7
:102790000068204987B0884239D11F48016841F05C
:1027A00001010160006800F0010005901A48143032
:1027B000016841F0100101600068012100F0100083
:1027C00005904FF4007000900220CDE901010390C4
:1027D0000720124D049069462846FEF7F5FC28159F
:1027E000009069462846FEF7EFFC2068C16821F09A
:1027F0004001C1602068C16841F02001C16025200E
:10280000FEF78CFF032211462520FEF793FF07B049
:1028100030BD00000010014030380240000002408E
:102820002DE9F047044690F8390099460D460128F5
:1028300001D0122857D125B31AB394F838000128D3
:1028400051D0012684F838600027E76394F83900F6
:10285000122819D0222084F83900A285E2854FF48D
:102860008058E08D4B46401EE085A0684FF0000286
:1028700040454FF02001204616D104F004FBB0B9CA
:1028800004E00120BDE8F0873220E4E72069002859
:102890002068406803D0C1B225F8011B12E0C0F3E4
:1028A000080125F8021B0DE004F0EDFA08B1032041
:1028B000E8E7206900282068406801D000F07F0028
:1028C00005F8010BE08D0028CBD194F839003228AF
:1028D00005D084F8396084F838700020D2E71220DF
:1028E00084F83900F7E70220CCE770477047FEE72D
:1028F00070B50D4C0025C4F890520C48016821F4C5
:1029000040610160016841F480610160C4F8945243
:10291000022004F5247404F057FB012020600220FB
:1029200004F052FB256070BD00804342001C024051
:102930000E4810B5016886B041F080010160006862
:10294000012400F0800005903020CDE90004022031
:10295000CDE9024069460648FEF736FC0548C0F856
:102960009442C0F8904206B010BD000030380240DA
:10297000001C02400080434270B50D4C0026C4F894
:1029800090620C48016821F440610160016841F4E3
:10299000806101600125C4F89452022004F524747A
:1029A00004F012FB2560022004F00EFB266070BDCF
:1029B00000804342001C02402DE9F0478146164842
:1029C0000024016821F44061016001680160134E38
:1029D000254627464FF00108C6F89072022004F001
:1029E000F3FAC6F890826006040ED6F8140208B115
:1029F000641CE4B2012004F0E7FA6D1CEDB2082D6E
:102A0000EAD3B9F1000F04D0FFF772FF2046BDE80A
:102A1000F087FFF7B1FFF9E7001C02400080434256
:102A20002DE9F04105461448016821F44061016038
:102A3000016841F480610160104E0027C6F8907271
:102A40003C464FF00108E809C6F894026806050EF6
:102A5000022004F0B9FAC6F89082022004F0B4FA19
:102A6000C6F89072022004F0AFFA641CE4B2082C9D
:102A7000E9D3BDE8F0810000001C02400080434221
:102A800070B50D48016821F440610160016841F4AE
:102A900080610160094C0120C4F89402C4F89002DE
:102AA000042004F5247404F08FFA002565600420E6
:102AB00004F08AFA256070BD001C02400080434289
:102AC0000E4810B5016821F440610160016841F4CD
:102AD000806101600A4C0020C4F89002C4F894029E
:102AE000042004F5247404F06FFA01202060606073
:102AF000BDE81040042004F067BA0000001C02404A
:102B00000080434270B512480024016821F44061FE
:102B10000160016801600F4D0126C5F894623046DE
:102B200004F052FAC5F89062012004F04DFA07E073
:102B3000641CE4B2FA2C03D9FFF7C2FF012070BD78
:102B4000D5F814020028F3D1C5F8900270BD00003A
:102B5000001C02400080434270B51B4886B000252F
:102B6000016841F001010160016801F00101059176
:102B7000016841F004010160016801F00401059160
:102B8000016841F0800101600068032400F08000CA
:102B9000059002200126CDE90204CDE900656946D1
:102BA0000A48FEF711FB700303948DE86100694643
:102BB0000748FEF709FB0C20009069460548FEF720
:102BC00003FB06B070BD0000303802400000024038
:102BD00000080240001C02402DE9F0470126304C5D
:102BE0007703DFF8C080DFF8C090304D01281DD09A
:102BF0002078A0B108212846FEF7D4FBC0B10421FB
:102C00002846FEF7CFFB98B139464046FEF7CAFB8F
:102C100070B101214846FEF7C5FB012808D0082104
:102C20002846FEF7BFFB012826D037E02670E1E7F3
:102C30000A2004F0BBF90020207008212846FEF786
:102C4000B1FB80B104212846FEF7ACFB70B13946D8
:102C50004046FEF7A7FB58B101214846FEF7A2FB0C
:102C6000012807D01AE00120BDE8F0870220FBE729
:102C70000320F9E70420F7E704212846FEF792FB3A
:102C800001280BD139464046FEF78CFB012805D1BF
:102C900001214846FEF786FB00B926700020E3E7D5
:102CA000680000200008024000000240001C0240B2
:102CB00070B50E490E4A064608881268002422B1F3
:102CC0003046BDE8704002F049BE4D8800214543C2
:102CD000084602F00DFC02F0F1FDB1B2054801E03A
:102CE0000180641CAC42FBD370BD00008443002013
:102CF00070440020000008602DE9F05F394C3A4D27
:102D0000A071296839B102F0A9FEE88A2080288BD9
:102D10006080BDE8F09F33492C232A2589884FF035
:102D2000F00949F2413A2B2645F2105B4FF4305E30
:102D30004FF448774FF4A07845F2103C4FF4F0720E
:102D400058B1A4F80080A4F80290514501D0614523
:102D500029D123816581A68139E0A4F80090A4F8E7
:102D60000280514501D0614508D123816581A6814A
:102D7000614531D1A4F8008062802DE0594508D129
:102D8000A4F808E04FF4285060814FF42C50A08143
:102D900006E0A1F5C85063381ED123816681A58164
:102DA0002280678018E0594508D1A4F808E04FF464
:102DB000285060814FF42C50A08106E0A1F5C85046
:102DC000633804D123816581A681278062806145B3
:102DD00002D12280A4F80280BDE8F05F002002F05A
:102DE000ABBA000084430020704400202DE9F0417C
:102DF00004463A480D46006820B12046BDE8F0413F
:102E000002F040BE364E270A3146B0884989A0F507
:102E100013434FEA1528413B0CD0A0F5A643103BC5
:102E200008D0A0F5AA43103B11D0A0F5C853633BCE
:102E300027D04BE0084602F035FD384602F026FD6B
:102E4000E0B202F023FDB08902F02CFD38E0084624
:102E500002F028FD384602F019FD7089401C80B24E
:102E600002F020FDE0B202F011FDB08902F01AFD7F
:102E7000404602F00BFDB089401C80B202F012FD0A
:102E800021E0B07918B93088001B401E84B2084692
:102E900002F008FD270A384602F0F8FCE0B202F022
:102EA000F5FC384602F0F2FCE0B202F0EFFCB0892B
:102EB00002F0F8FC404602F0E9FCE8B202F0E6FC61
:102EC000404602F0E3FCE8B202F0E0FC054930893C
:102ED0000880881C0280BDE8F0810000704400205A
:102EE00084430020FEFF07602DE9F8431F46144B82
:102EF000804608981B6833B100903B46404602F07C
:102F0000DFFDBDE8F883A2EB0802521C96B20C4626
:102F100085B2DFF830900FE02146404602F0E8FA33
:102F200002F0CCFC0020494602E00D80401C80B23B
:102F3000B042FAD3641CA4B2BC42EDD9E1E7000070
:102F400070440020000008602DE9F04F95B002F0B9
:102F50002BFFFE4D4FF0010AA5F15009A88049F260
:102F6000413B45F2103645F2105441F6631818B152
:102F700002F000FE02F08BB9F5480027016841F02D
:102F800002010160006810A900F0020000902020FA
:102F9000CDE9100A0320CDE912A0EE48FEF714F99E
:102FA0004FF020414846C9F80010EB49C0E901172D
:102FB0001021C9F80C70C0E90471C9F81870090231
:102FC000C9F81C70C0E909718900C0E90B71C9F822
:102FD00034708901C9E90E7146210B910F20CDE9AA
:102FE0000907CDE902070490D8480F9702AA09A95A
:102FF00008975038FFF778F9322003F0D7FFD32035
:1030000002F050FC02F066F9A88002F063F9A88093
:1030100002F060F94FF6FF7202EA0020A88002F089
:1030200059F9A9885F460843A880B84248D0D420FF
:1030300002F038FC02F04EF9A88002F04BF9A880AB
:1030400002F048F902EA0020A88002F043F9A988BA
:103050000843A880B04233D04FF45A4002F022FC1B
:1030600002F038F9A8804FF45B4002F01BFC02F03C
:1030700031F902EA0020A8804FF45C4002F012FC13
:1030800002F028F9A9880843A880B0F5004F7DD048
:10309000A04215D0A12002F005FC02F01BF9A88087
:1030A00002F018F902EA0020A88002F013F9A988BA
:1030B0000843A0F5AE41A880613901D1A5F804808C
:1030C000A988A6A0FDF714F9A888B8427ED1CF2020
:1030D00002F0E8FB002002F0D9FBC12002F0D6FB91
:1030E000302002F0D3FBED2002F0DCFB642002F084
:1030F000CDFB032002F0CAFB122002F0C7FB8120A7
:1031000002F0C4FBE82002F0CDFB852002F0BEFBFC
:10311000102002F0BBFB7A2002F0B8FBCB2002F0BB
:10312000C1FB392002F0B2FB2C2002F0AFFB0020E3
:1031300002F0ACFB342002F0A9FB022002F0A6FB57
:10314000F72002F0AFFB202002F0A0FBEA2002F003
:10315000A9FB002002F09AFB002002F097FBC020A0
:1031600002F0A0FB1B2002F091FBC12002F09AFBB1
:10317000012002F08BFBC52002F094FB302002F00E
:1031800085FB302002F082FBC72000E0B7E002F0B0
:1031900089FBB72002F07AFB362002F083FB48203F
:1031A00002F074FB3A2002F07DFB552002F06EFB2A
:1031B000B12002F077FB002002F068FB1A2002F039
:1031C00065FBB62002F06EFB0A2000E099E002F0F9
:1031D0005DFBA22002F05AFBF22002F063FB00200C
:1031E00002F054FB262002F05DFB012002F04EFBB2
:1031F000E02002F057FB0F2002F048FB2A2002F0EB
:1032000045FB282002F042FB082002F03FFB0E2085
:1032100002F03CFB082002F039FB542002F036FBA0
:10322000A92002F033FB432002F030FB0A2002F019
:103230002DFB0F2002F02AFB002002F027FB0020CC
:1032400002F024FB002002F021FB002002F01EFB14
:10325000E12002F027FB002002F018FB152002F00D
:1032600015FB172002F012FB072002F00FFB1120C4
:1032700002F00CFB062002F009FB2B2002F006FBFB
:10328000562002F003FB3C2002F000FB052002F078
:10329000FDFA102002F0FAFA0F2002F0F7FA3F20B0
:1032A00002F0F4FA3F2002F0F1FA0F2002F0EEFAF9
:1032B0002B2002F0F7FA002002F0E8FA002002F0DA
:1032C000E5FA012002F0E2FA3F2002F0DFFA2A20BC
:1032D00002F0E8FA002002F0D9FA002002F0D6FA53
:1032E000002002F0D3FAEF2002F0D0FA112002F011
:1032F000D9FA782003F05AFE292001F00BBFAC80E8
:10330000DEE6B0427ED1ED2002F0CCFA012002F0E0
:10331000BDFAFE2002F0BAFAEE2002F0C3FADE2077
:1033200002F0B4FA212002F0B1FAF12002F0BAFA68
:10333000012002F0ABFADF2002F0B4FA102002F014
:10334000A5FAC42002F0AEFA8F200FE084430020DB
:103350003038024000040240040100A0204C4344E5
:103360002049443A25780D0A0000000002F08EFA48
:10337000C62002F097FA002002F088FAE22002F05C
:1033800085FAE22002F082FAE22002F07FFABF2002
:1033900002F088FAAA2002F079FAB02002F082FA4C
:1033A0000D2002F073FA002002F070FA0D2002F0F6
:1033B0006DFA002002F06AFA112002F067FA00208C
:1033C00002F064FA192002F061FA002002F05EFABD
:1033D000212002F05BFA002002F058FA2D2002F0C2
:1033E00055FA002002F052FA3D2002F04FFA002078
:1033F00002F04CFA5D2002F049FA002002F046FA91
:103400005D2000E0FEE302F041FA002002F03EFA07
:10341000B12002F047FA802002F038FA002002F0D2
:1034200035FA8B2002F032FA002002F02FFA9620B3
:1034300002F02CFA002002F029FAB22002F032FA4F
:10344000002002F023FA002002F020FA022002F00D
:103450001DFA002002F01AFA032002F017FA0020E9
:1034600002F014FAB32002F01DFA002002F00EFA66
:10347000002002F00BFA002002F008FA002002F00F
:1034800005FA002002F002FA002002F0FFF9002005
:1034900002F0FCF9002002F0F9F9002002F0F6F940
:1034A000002002F0F3F9002002F0F0F9002002F011
:1034B000EDF9002002F0EAF9002002F0E7F900201F
:1034C00002F0E4F9002002F0E1F9002002F0DEF958
:1034D000002002F0DBF9002002F0D8F9002002F011
:1034E000D5F9002002F0D2F9002002F0CFF9002037
:1034F00002F0CCF9002002F0C9F9B42002F0D2F9B0
:103500008B2002F0C3F9002002F0C0F9962002F0EF
:10351000BDF9002002F0BAF9A12002F0B7F90020AD
:1035200002F0B4F9B52002F0BDF9022002F0AEF9C4
:10353000002002F0ABF9032002F0A8F9002002F00D
:10354000A5F9042002F0A2F9002002F09FF9B620AC
:1035500002F0A8F9002002F099F9002002F096F993
:10356000B72002F09FF9002002F090F9002002F04D
:103570008DF93F2002F08AF9002002F087F95E20E1
:1035800002F084F9002002F081F9642002F07EF953
:10359000002002F07BF98C2002F078F9002002F084
:1035A00075F9AC2002F072F9002002F06FF9DC200E
:1035B00002F06CF9002002F069F9702002F066F95F
:1035C000002002F063F9902002F060F9002002F080
:1035D0005DF9EB2002F05AF9002002F057F9DC20E7
:1035E00002F054F9002002F051F9B82002F05AF923
:1035F000002002F04BF9002002F048F9002002F010
:1036000045F9002002F042F9002002F03FF90020C5
:1036100002F03CF9002002F039F9002002F036F9FE
:10362000BA2002F03FF9242002F030F9002002F025
:103630002DF9002002F02AF9002002F027F9C1201C
:1036400002F030F9202002F021F9002002F01EF9EA
:10365000542002F01BF9002002F018F9FF2002F0BC
:1036600015F9002002F012F9C22002F01BF90A201D
:1036700002F00CF9002002F009F9042002F006F92A
:10368000002002F003F9C32002F00CF93C2002F004
:10369000FDF8002002F0FAF83A2002F0F7F80020D6
:1036A00002F0F4F8392002F0F1F8002002F0EEF810
:1036B000372002F0EBF8002002F0E8F83C2002F09E
:1036C000E5F8002002F0E2F8362002F0DFF80020F2
:1036D00002F0DCF8322002F0D9F8002002F0D6F82F
:1036E0002F2002F0D3F8002002F0D0F82C2002F0B6
:1036F000CDF8002002F0CAF8292002F0C7F8002017
:1037000002F0C4F8262002F0C1F8002002F0BEF852
:10371000242002F0BBF8002002F0B8F8242002F0C8
:10372000B5F8002002F0B2F8232002F0AFF8002034
:1037300002F0ACF83C2002F0A9F8002002F0A6F854
:10374000362002F0A3F8002002F0A0F8322002F0A8
:103750009DF8002002F09AF82F2002F097F8002040
:1037600002F094F82C2002F091F8002002F08EF87C
:10377000292002F08BF8002002F088F8262002F0C1
:1037800085F8002002F082F8242002F07FF8002063
:1037900002F07CF8242002F079F8002002F076F89C
:1037A000232002F073F8002002F070F8C42002F029
:1037B00079F8622002F06AF8002002F067F805202C
:1037C00002F064F8002002F061F8842002F05EF854
:1037D000002002F05BF8F02002F058F8002002F020
:1037E00055F8182002F052F8002002F04FF8A420FB
:1037F00002F04CF8002002F049F8182002F046F8D8
:10380000002002F043F8502002F040F8002002F0BF
:103810003DF80C2002F03AF8002002F037F81720AB
:1038200002F034F8002002F031F8952002F02EF872
:10383000002002F02BF8F32002F028F8002002F01C
:1038400025F8E62002F022F8002002F01FF8C5203B
:1038500002F028F8322002F019F8002002F016F8E1
:10386000442002F013F8002002F010F8652002F066
:103870000DF8002002F00AF8762002F007F8002088
:1038800002F004F8882002F001F8002001F0FEFFA9
:10389000C62002F007F8202001F0F8FF002001F018
:1038A000F5FF172001F0F2FF002001F0EFFF0120EB
:1038B00001F0ECFF002001F0E9FFC72001F0F2FF6A
:1038C000002001F0E3FF002001F0E0FF002001F004
:1038D000DDFF002001F0DAFFC82001F0E3FF002047
:1038E00001F0D4FF002001F0D1FF002001F0CEFF55
:1038F000002001F0CBFFC92001F0D4FF002001F02F
:10390000C5FF002001F0C2FF002001F0BFFF002032
:1039100001F0BCFF002001F0B9FF002001F0B6FF6C
:10392000002001F0B3FF002001F0B0FF002001F003
:10393000ADFF002001F0AAFF002001F0A7FF00204A
:1039400001F0A4FF002001F0A1FF002001F09EFF84
:10395000002001F09BFF002001F098FFE02001F023
:10396000A1FF162001F092FF002001F08FFF1C2024
:1039700001F08CFF002001F089FF212001F086FF7B
:10398000002001F083FF362001F080FF002001F0CD
:103990007DFF462001F07AFF002001F077FF5220E2
:1039A00001F074FF002001F071FF642001F06EFF50
:1039B000002001F06BFF7A2001F068FF002001F089
:1039C00065FF8B2001F062FF002001F05FFF99206E
:1039D00001F05CFF002001F059FFA82001F056FF24
:1039E000002001F053FFB92001F050FF002001F04A
:1039F0004DFFC42001F04AFF002001F047FFCA201C
:103A000001F044FF002001F041FFD22001F03EFF11
:103A1000002001F03BFFD92001F038FF002001F029
:103A200035FFE02001F032FF002001F02FFFF320EE
:103A300001F02CFF002001F029FFE12001F032FF0E
:103A4000162001F023FF002001F020FF1C2001F0D0
:103A50001DFF002001F01AFF222001F017FF0020B7
:103A600001F014FF362001F011FF002001F00EFFDD
:103A7000452001F00BFF002001F008FF522001F06B
:103A800005FF002001F002FF642001F0FFFE00208E
:103A900001F0FCFE7A2001F0F9FE002001F0F6FEB4
:103AA0008B2001F0F3FE002001F0F0FE992001F0E0
:103AB000EDFE002001F0EAFEA82001F0E7FE002064
:103AC00001F0E4FEB92001F0E1FE002001F0DEFE8D
:103AD000C42001F0DBFE002001F0D8FECA2001F076
:103AE000D5FE002001F0D2FED22001F0CFFE002052
:103AF00001F0CCFED82001F0C9FE002001F0C6FE86
:103B0000E02001F0C3FE002001F0C0FEF32001F030
:103B1000BDFE002001F0BAFEE22001F0C3FE052048
:103B200001F0B4FE002001F0B1FE0B2001F0AEFE6A
:103B3000002001F0ABFE1B2001F0A8FE002001F0E8
:103B4000A5FE342001F0A2FE002001F09FFE4420DB
:103B500001F09CFE002001F099FE4F2001F096FE3E
:103B6000002001F093FE612001F090FE002001F0A2
:103B70008DFE792001F08AFE002001F087FE88206A
:103B800001F084FE002001F081FE972001F07EFE0E
:103B9000002001F07BFEA62001F078FE002001F05D
:103BA00075FEB72001F072FE002001F06FFEC2200A
:103BB00001F06CFE002001F069FEC72001F066FEF6
:103BC000002001F063FED12001F060FE002001F032
:103BD0005DFED62001F05AFE002001F057FEDD20E8
:103BE00001F054FE002001F051FEF32001F04EFEE2
:103BF000002001F04BFEE32001F054FE052001F00F
:103C000045FE00E00AE3002001F040FE0A2001F03A
:103C10003DFE002001F03AFE1C2001F037FE00209E
:103C200001F034FE332001F031FE002001F02EFEC1
:103C3000442001F02BFE002001F028FE502001F06E
:103C400025FE002001F022FE622001F01FFE002070
:103C500001F01CFE782001F019FE002001F016FE94
:103C6000882001F013FE002001F010FE972001F0E3
:103C70000DFE002001F00AFEA62001F007FE002044
:103C800001F004FEB72001F001FE002001F0FEFD6E
:103C9000C22001F0FBFD002001F0F8FDC72001F07B
:103CA000F5FD002001F0F2FDD12001F0EFFD002034
:103CB00001F0ECFDD52001F0E9FD002001F0E6FD6A
:103CC000DD2001F0E3FD002001F0E0FDF32001F034
:103CD000DDFD002001F0DAFDE42001F0E3FD01202C
:103CE00001F0D4FD002001F0D1FD012001F0CEFD56
:103CF000002001F0CBFD022001F0C8FD002001F002
:103D0000C5FD2A2001F0C2FD002001F0BFFD3C20CE
:103D100001F0BCFD002001F0B9FD4B2001F0B6FD23
:103D2000002001F0B3FD5D2001F0B0FD002001F0A6
:103D3000ADFD742001F0AAFD002001F0A7FD842054
:103D400001F0A4FD002001F0A1FD932001F09EFDF3
:103D5000002001F09BFDA22001F098FD002001F061
:103D600095FDB32001F092FD002001F08FFDBE20F3
:103D700001F08CFD002001F089FDC42001F086FDDA
:103D8000002001F083FDCD2001F080FD002001F036
:103D90007DFDD32001F07AFD002001F077FDDD20CC
:103DA00001F074FD002001F071FDF32001F06EFDC3
:103DB000002001F06BFDE52001F074FD002001F012
:103DC00065FD002001F062FD002001F05FFD002094
:103DD00001F05CFD022001F059FD002001F056FDCC
:103DE000292001F053FD002001F050FD3C2001F09E
:103DF0004DFD002001F04AFD4B2001F047FD002061
:103E000001F044FD5D2001F041FD002001F03EFD88
:103E1000742001F03BFD002001F038FD842001F00A
:103E200035FD002001F032FD932001F02FFD002030
:103E300001F02CFDA22001F029FD002001F026FD5B
:103E4000B32001F023FD002001F020FDBE2001F091
:103E50001DFD002001F01AFDC42001F017FD002017
:103E600001F014FDCD2001F011FD002001F00EFD48
:103E7000D32001F00BFD002001F008FDDC2001F053
:103E800005FD002001F002FDF32001F0FFFC002001
:103E900001F0FCFCE62001F005FD112001F0F6FC2C
:103EA000002001F0F3FC342001F0F0FC002001F0D0
:103EB000EDFC562001F0EAFC002001F0E7FC762042
:103EC00001F0E4FC002001F0E1FC772001F0DEFCD1
:103ED000002001F0DBFC662001F0D8FC002001F09E
:103EE000D5FC882001F0D2FC002001F0CFFC992005
:103EF00001F0CCFC002001F0C9FCBB2001F0C6FCA5
:103F0000002001F0C3FC992001F0C0FC002001F06A
:103F1000BDFC662001F0BAFC002001F0B7FC552082
:103F200001F0B4FC002001F0B1FC552001F0AEFC22
:103F3000002001F0ABFC452001F0A8FC002001F0BE
:103F4000A5FC432001F0A2FC002001F09FFC4420CE
:103F500001F09CFC002001F099FCE72001F0A2FC9C
:103F6000322001F093FC002001F090FC552001F07C
:103F70008DFC002001F08AFC762001F087FC0020F7
:103F800001F084FC662001F081FC002001F07EFC41
:103F9000672001F07BFC002001F078FC672001F035
:103FA00075FC002001F072FC872001F06FFC0020FE
:103FB00001F06CFC992001F069FC002001F066FC26
:103FC000BB2001F063FC002001F060FC992001F0AF
:103FD0005DFC002001F05AFC772001F057FC002026
:103FE00001F054FC442001F051FC002001F04EFC93
:103FF000562001F04BFC002001F048FC232001F08A
:1040000045FC002001F042FC332001F03FFC002081
:1040100001F03CFC452001F039FC002001F036FCA9
:10402000E82001F03FFC002001F030FC002001F00E
:104030002DFC992001F02AFC002001F027FC8720AC
:1040400001F024FC002001F021FC882001F01EFC7E
:10405000002001F01BFC772001F018FC002001F08B
:1040600015FC662001F012FC002001F00FFC8820F6
:1040700001F00CFC002001F009FCAA2001F006FC74
:10408000002001F003FCBB2001F000FC002001F047
:10409000FDFB992001F0FAFB002001F0F7FB662000
:1040A00001F0F4FB002001F0F1FB552001F0EEFBE4
:1040B000002001F0EBFB552001F0E8FB002001F0AF
:1040C000E5FB442001F0E2FB002001F0DFFB44208F
:1040D00001F0DCFB002001F0D9FB552001F0D6FBFC
:1040E000002001F0D3FBE92001F0DCFBAA2001F065
:1040F000CDFB002001F0CAFB002001F0C7FB00202F
:1041000001F0C4FB002001F0CDFBAA2001F0BEFBB2
:10411000CF2001F0C7FB002001F0B8FB002001F028
:10412000B5FB002001F0B2FB002001F0AFFB002046
:1041300001F0ACFB002001F0A9FB002001F0A6FB80
:10414000002001F0A3FB002001F0A0FB002001F003
:104150009DFB002001F09AFB002001F097FB00205E
:1041600001F094FB002001F091FB002001F08EFB98
:10417000002001F08BFB002001F088FBF02001F013
:1041800091FB002001F082FB502001F07FFB00201A
:1041900001F07CFB002001F079FB002001F076FBB0
:1041A000F32001F07FFB002001F070FBF92001F00B
:1041B00079FB062001F06AFB102001F067FB292043
:1041C00001F064FB002001F061FB3A2001F06AFB82
:1041D000552001F05BFB112001F064FB642002F02C
:1041E000E5FE292001F05EFB352001F05BFB00209D
:1041F00001F04CFB512001F055FBFF2001F046FB84
:10420000532001F04FFB2C2001F040FB552001F022
:1042100049FB822001F03AFB2C20FDE3A0427DD136
:104220004FF470435521184601F052FB4FF201073D
:10423000AA21384601F04CFB5221781C01F048FBC2
:104240000821B81C01F044FB0121F81C01F040FBDF
:104250000D214FF4304001F03BFB0D214BF20100EA
:1042600001F036FB0D214BF2020001F031FB34214D
:104270004FF4364001F02CFB34214BF2016001F089
:1042800027FB34214BF2026001F022FB0D214FF499
:10429000314001F01DFB0D214BF2011001F018FB24
:1042A0000D214BF2021001F013FB34214FF4374083
:1042B00001F00EFB34214BF2017001F009FB3421B7
:1042C0004BF2027001F004FB00214FF4324001F088
:1042D000FFFA00214BF2012001F0FAFA00214BF223
:1042E000022001F0F5FA24214FF4384001F0F0FAF1
:1042F00024214BF6010001F0EBFA24214BF60200D9
:1043000001F0E6FA01214FF43F4001F0E1FA0F21FC
:104310004FF4334001F0DCFA0F2100E0FEE34BF2F2
:10432000013001F0D5FA0F214BF2023001F0D0FA42
:1043300034214FF4394001F0CBFA34214BF601100F
:1043400001F0C6FA34214BF6021001F0C1FA08213F
:104350004FF4354001F0BCFA08214BF2015001F056
:10436000B7FA08214BF2025001F0B2FA03214FF4E0
:10437000424001F0ADFA24214FF43A4001F0A8FA8E
:1043800024214BF6012001F0A3FA24214BF6022050
:1043900001F09EFA00214FF43C4001F099FA782197
:1043A0004BF6014001F094FA00214BF6024001F077
:1043B0008FFA00214FF43D4001F08AFA78214BF644
:1043C000015001F085FA00214BF6025001F080FA0D
:1043D00000214FF43E4001F07BFA64214BF601606E
:1043E00001F076FA00214FF4514001F071FA3321C7
:1043F0004DF2011001F06CFA00214DF2021001F0B3
:1044000067FA34214DF2031001F062FA00214DF2F7
:10441000041001F05DFA3A214DF2051001F058FA4E
:1044200000214DF2061001F053FA4A214DF2071017
:1044300001F04EFA00214DF2081001F049FA5C211A
:104440004DF2091001F044FA00214DF20A1001F07A
:104450003FFA81214DF20B1001F03AFA00214DF2A2
:104460000C1001F035FAA6214DF20D1001F030FAD2
:1044700000214DF20E1001F02BFAE5214DF20F1044
:1044800001F026FA01214DF2101001F021FA13215A
:104490004DF2111001F01CFA01214DF2121001F041
:1044A00017FA54214DF2131001F012FA01214DF2C6
:1044B000141001F00DFA82214DF2151001F008FAE6
:1044C00001214DF2161001F003FACA214DF2171026
:1044D00001F0FEF902214DF2181001F0F9F9002166
:1044E0004DF2191001F0F4F902214DF21A1001F009
:1044F000EFF901214DF21B1001F0EAF902214DF212
:104500001C1001F0E5F934214DF21D1001F0E0F925
:1045100002214DF21E1001F0DBF967214DF21F1050
:1045200001F0D6F902214DF2201001F0D1F98421D9
:104530004DF2211001F0CCF902214DF2221001F0D0
:10454000C7F9A4214DF2231001F0C2F902214DF266
:10455000241001F0BDF9B7214DF2251001F0B8F992
:1045600002214DF2261001F0B3F9CF214DF22710B0
:1045700001F0AEF902214DF2281001F0A9F9DE2177
:104580004DF2291001F0A4F902214DF22A1001F098
:104590009FF9F2214DF22B1001F09AF902214DF210
:1045A0002C1001F095F9FE214DF22D1001F090F93B
:1045B00003214DF22E1001F08BF910214DF22F1036
:1045C00001F086F903214DF2301001F081F9332119
:1045D0004DF2311001F07CF903214DF2321001F05F
:1045E00077F96D214DF2331001F072F900214FF48B
:1045F000524001F06DF933214DF2012001F068F9CC
:1046000000214DF2022001F063F934214DF2032024
:1046100001F05EF900214DF2042001F059F93A2130
:104620004DF2052001F054F900214DF2062001F071
:104630004FF94A214DF2072001F04AF900214DF2CD
:10464000082001F045F95C214DF2092001F040F904
:1046500000214DF20A2001F03BF981214DF20B209F
:1046600001F036F900214DF20C2001F031F9A621BC
:104670004DF20D2001F02CF900214DF20E2001F039
:1046800027F9E5214DF20F2001F022F901214DF229
:10469000102001F01DF913214DF2112001F018F93D
:1046A00001214DF2122001F013F954214DF2132093
:1046B00001F00EF901214DF2142001F009F98221D7
:1046C0004DF2152001F004F901214DF2162001F000
:1046D000FFF8CA214DF2172001F0FAF802214DF23D
:1046E000182001F0F5F800214DF2192001F0F0F842
:1046F00002214DF21A2001F0EBF801214DF21B20AE
:1047000001F0E6F802214DF21C2001F0E1F834211D
:104710004DF21D2001F0DCF802214DF21E2001F0C7
:10472000D7F867214DF21F2001F0D2F802214DF297
:10473000202001F0CDF884214DF2212001F0C8F8AD
:1047400002214DF2222001F0C3F8A4214DF22320D2
:1047500001F0BEF802214DF2242001F0B9F8B72192
:104760004DF2252001F0B4F802214DF2262001F08F
:10477000AFF8CF214DF2272001F0AAF802214DF227
:10478000282001F0A5F8DE214DF2292001F0A0F843
:1047900002214DF22A2001F09BF8F2214DF22B204C
:1047A00001F096F802214DF22C2001F091F8FE2143
:1047B0004DF22D2001F08CF803214DF22E2001F056
:1047C00087F810214DF22F2001F082F803214DF2DD
:1047D000302001F07DF833214DF2312001F078F8DE
:1047E00003214DF2322001F073F86D214DF2332098
:1047F00001F06EF800214FF4534001F069F83321C5
:104800004DF2013001F064F800214DF2023001F068
:104810005FF834214DF2033001F05AF800214DF2D7
:10482000043001F055F83A214DF2053001F050F80E
:1048300000214DF2063001F04BF84A214DF20730CD
:1048400001F046F800214DF2083001F041F85C21FA
:104850004DF2093001F03CF800214DF20A3001F030
:1048600037F881214DF20B3001F032F800214DF282
:104870000C3001F02DF8A6214DF20D3001F028F892
:1048800000214DF20E3001F023F8E5214DF20F30FA
:1048900001F01EF801214DF2103001F019F813213A
:1048A0004DF2113001F014F801214DF2123001F0F7
:1048B0000FF854214DF2133001F00AF801214DF2A6
:1048C000143001F005F882214DF2153001F000F8A6
:1048D00001214DF2163000F0FBFFCA214DF21730D6
:1048E00000F0F6FF02214DF2183000F0F1FF002138
:1048F0004DF2193000F0ECFF02214DF21A3000F0B9
:10490000E7FF01214DF21B3000F0E2FF02214DF2E2
:104910001C3000F0DDFF34214DF21D3000F0D8FFD7
:1049200002214DF21E3000F0D3FF67214DF21F30FF
:1049300000F0CEFF02214DF2203000F0C9FF8421AB
:104940004DF2213000F0C4FF02214DF2223000F080
:10495000BFFFA4214DF2233000F0BAFF02214DF237
:10496000243000F0B5FFB7214DF2253000F0B0FF44
:1049700002214DF2263000F0ABFFCF214DF227305F
:1049800000F0A6FF02214DF2283000F0A1FFDE2149
:104990004DF2293000F09CFF02214DF22A3000F048
:1049A00097FFF2214DF22B3000F092FF02214DF2E1
:1049B0002C3000F08DFFFE214DF22D3000F088FFED
:1049C00003214DF22E3000F083FF10214DF22F30E5
:1049D00000F07EFF03214DF2303000F079FF3321EB
:1049E0004DF2313000F074FF03214DF2323000F00F
:1049F0006FFF6D214DF2333000F06AFF00214FF45C
:104A0000544000F065FF33214DF2014000F060FF9B
:104A100000214DF2024000E07CE300F059FF342118
:104A20004DF2034000F054FF00214DF2044000F02D
:104A30004FFF3A214DF2054000F04AFF00214DF2B0
:104A4000064000F045FF4A214DF2074000F040FFCC
:104A500000214DF2084000F03BFF5C214DF209407F
:104A600000F036FF00214DF20A4000F031FF8121B5
:104A70004DF20B4000F02CFF00214DF20C4000F0F5
:104A800027FFA6214DF20D4000F022FF00214DF23C
:104A90000E4000F01DFFE5214DF20F4000F018FF21
:104AA00001214DF2104000F013FF13214DF211408F
:104AB00000F00EFF01214DF2124000F009FF5421D9
:104AC0004DF2134000F004FF01214DF2144000F0BC
:104AD000FFFE82214DF2154000F0FAFE01214DF259
:104AE000164000F0F5FECA214DF2174000F0F0FE2E
:104AF00002214DF2184000F0EBFE00214DF219406A
:104B000000F0E6FE02214DF21A4000F0E1FE012124
:104B10004DF21B4000F0DCFE022100E0FDE24DF210
:104B20001C4000F0D5FE34214DF21D4000F0D0FEB7
:104B300002214DF21E4000F0CBFE67214DF21F40D6
:104B400000F0C6FE02214DF2204000F0C1FE84219B
:104B50004DF2214000F0BCFE02214DF2224000F057
:104B6000B7FEA4214DF2234000F0B2FE02214DF227
:104B7000244000F0ADFEB7214DF2254000F0A8FE24
:104B800002214DF2264000F0A3FECF214DF2274036
:104B900000F09EFE02214DF2284000F099FEDE2139
:104BA0004DF2294000F094FE02214DF22A4000F01F
:104BB0008FFEF2214DF22B4000F08AFE02214DF2D1
:104BC0002C4000F085FEFE214DF22D4000F080FECD
:104BD00003214DF22E4000F07BFE10214DF22F40BC
:104BE00000F076FE03214DF2304000F071FE3321DB
:104BF0004DF2314000F06CFE03214DF2324000F0E6
:104C000067FE6D214DF2334000F062FE00214FF44B
:104C1000554000F05DFE33214DF2015000F058FE8A
:104C200000214DF2025000F053FE34214DF20350AA
:104C300000F04EFE00214DF2045000F049FE3A21F2
:104C40004DF2055000F044FE00214DF2065000F0F8
:104C50003FFE4A214DF2075000F03AFE00214DF28E
:104C6000085000F035FE5C214DF2095000F030FE96
:104C700000214DF20A5000F02BFE81214DF20B5025
:104C800000F026FE00214DF20C5000F021FEA6217E
:104C90004DF20D5000F01CFE00214DF20E5000F0C0
:104CA00017FEE5214DF20F5000F012FE01214DF2EA
:104CB000105000F00DFE13214DF2115000F008FECF
:104CC00001214DF2125000F003FE54214DF2135019
:104CD00000F0FEFD01214DF2145000F0F9FD82219B
:104CE0004DF2155000F0F4FD01214DF2165000F088
:104CF000EFFDCA214DF2175000F0EAFD02214DF2FE
:104D0000185000F0E5FD00214DF2195000F0E0FDD3
:104D100002214DF21A5000F0DBFD01214DF21B5033
:104D200000F0D6FD02214DF21C5000F0D1FD3421DF
:104D30004DF21D5000F0CCFD02214DF21E5000F04E
:104D4000C7FD67214DF21F5000F0C2FD02214DF258
:104D5000205000F0BDFD84214DF2215000F0B8FD3F
:104D600002214DF2225000F0B3FDA4214DF2235058
:104D700000F0AEFD02214DF2245000F0A9FDB72154
:104D80004DF2255000F0A4FD02214DF2265000F016
:104D90009FFDCF214DF2275000F09AFD02214DF2E8
:104DA000285000F095FDDE214DF2295000F090FDD5
:104DB00002214DF22A5000F08BFDF2214DF22B50D2
:104DC00000F086FD02214DF22C5000F081FDFE2105
:104DD0004DF22D5000F07CFD03214DF22E5000F0DD
:104DE00077FD10214DF22F5000F072FD03214DF29E
:104DF000305000F06DFD33214DF2315000F068FD70
:104E000003214DF2325000F063FD6D214DF233501D
:104E100000F05EFD00214FF4564000F059FD3321B3
:104E20004DF2016000F054FD00214DF2026000F0EF
:104E30004FFD34214DF2036000F04AFD00214DF298
:104E4000046000F045FD3A214DF2056000F040FDA0
:104E500000214DF2066000F03BFD4A214DF2076053
:104E600000F036FD00214DF2086000F031FD5C21BC
:104E70004DF2096000F02CFD00214DF20A6000F0B7
:104E800027FD81214DF20B6000F022FD00214DF243
:104E90000C6000F01DFDA6214DF20D6000F018FD24
:104EA00000214DF20E6000F013FDE5214DF20F6080
:104EB00000F00EFD01214DF2106000F009FD1321FC
:104EC0004DF2116000F004FD01214DF2126000F07E
:104ED000FFFC54214DF2136000F0FAFC01214DF269
:104EE000146000F0F5FC82214DF2156000F0F0FC3A
:104EF00001214DF2166000F0EBFCCA214DF2176063
:104F000000F0E6FC02214DF2186000F0E1FC002107
:104F10004DF2196000F0DCFC02214DF21A6000F045
:104F2000D7FC01214DF21B6000F0D2FC02214DF2B2
:104F30001C6000F0CDFC34214DF21D6000F0C8FC77
:104F400002214DF21E6000F0C3FC67214DF21F608C
:104F500000F0BEFC02214DF2206000F0B9FC84217B
:104F60004DF2216000F0B4FC02214DF2226000F00D
:104F7000AFFCA4214DF2236000F0AAFC02214DF207
:104F8000246000F0A5FCB7214DF2256000F0A0FCE4
:104F900002214DF2266000F09BFCCF214DF22760EC
:104FA00000F096FC02214DF2286000F091FCDE2119
:104FB0004DF2296000F08CFC02214DF22A6000F0D5
:104FC00087FCF2214DF22B6000F082FC02214DF2B1
:104FD0002C6000F07DFCFE214DF22D6000F078FC8D
:104FE00003214DF22E6000F073FC10214DF22F6072
:104FF00000F06EFC03214DF2306000F069FC3321BB
:105000004DF2316000F064FC03214DF2326000F09B
:105010005FFC6D214DF2336000F05AFC55211846BB
:1050200000F056FCAA21384600F052FC5221781CB0
:1050300000F04EFC0821B81C00F04AFC0021F81CCE
:1050400000F046FCCC214FF4314000F041FC00213F
:105050004BF2011000F03CFC05214FF4364000F00B
:1050600037FC70214FF4374000F032FC70214BF2D6
:10507000017000F02DFC01214FF4384000F028FCB5
:1050800003214BF6010000F023FC03214BF6020044
:1050900000F01EFC03214BF6030000F019FC022176
:1050A0004FF43C4000F014FC00214BF6014000F0AE
:1050B0000FFC00214BF6024000F00AFCD0214FF417
:1050C000494000F005FC02214CF6011000F000FC04
:1050D00050214CF6021000F0FBFB50214CF603105F
:1050E00000F0F6FB50214CF6041000F0F1FB00211B
:1050F0004FF4545000F0ECFB55214FF4685000F091
:10510000E7FB4FF4885000F0CDFB782001F05CFF06
:105110004FF4245000F0C6FBB9E04045FCD1E2203A
:1051200000F0C0FB1D2000F0B1FB022000F0AEFB40
:10513000042000F0ABFB642001F046FFE02000F00B
:10514000B1FB012000F0A2FB0A2001F02FFFE020BC
:1051500000F0A8FB032000F099FB0C2001F026FFD3
:10516000012000F09FFB0A2001F020FFE62000F064
:1051700099FB2F2000F08AFBFF2000F087FBFF2027
:1051800000F084FBB02000F08DFB202000F07EFBBF
:10519000002000F07BFB032000F078FB40F21F3082
:1051A00000F074FB012000F071FB40F2DF1000F012
:1051B0006DFB002000F06AFBB42000F073FB0420BC
:1051C00000F064FB40F21F4000F060FB002000F0A4
:1051D0005DFB2E2000F05AFB002000F057FB002062
:1051E00000F054FB002000F051FB002000F04EFBCB
:1051F000B62000F057FB022000F048FB4FF403708C
:1052000000F044FB002000F041FB172000F03EFBC3
:10521000152000F03BFB002000F038FB002000F0E0
:1052200035FBF02000F03EFB032000F02FFB29208F
:1052300000F038FBD02000F035FB002000F026FB0A
:10524000BE2000F02FFB052000F020FBFE2000F028
:105250001DFB012000F01AFB002000F017FB0020CE
:1052600000F014FB002000F011FBB82000F01AFB46
:10527000032000F00BFB012000F008FBBA2000F037
:1052800011FB012000F002FB642000F02DF8A8883B
:10529000584505D0B04203D0A04201D0404509D1C5
:1052A000042002900490D9E9010202A9D9F8303013
:1052B000FBF72CFC0020FDF71FFD0549C1F894A267
:1052C0004FF6FF70FDF7F4FC15B0BDE8F08F00005D
:1052D00000804042034808B50088ADF80000BDF8E2
:1052E000000008BD0000086010B50246BE2000F0B6
:1052F000D9FA052000F0CAFA104603F082FD9FEDAE
:105300000C1B53EC112B03F08FFD03F04DFD80B20D
:1053100000F0BCFA012000F0B9FAFF2000F0B6FA64
:10532000002000F0B3FABDE81040002000F0AEBA53
:105330006666666666660440F0B56C4D00232946D5
:10534000AA79898841F66314012A01D01AB11BE0B9
:10535000A14202D118E0A14216D1082814D2DFE8F8
:1053600000F00406080A0C0E101206200CE00720BC
:105370000AE0042008E0052006E0012004E0002007
:1053800002E0032000E00220A1F5134745F21032AD
:1053900045F21056413F05D0914203D0B14201D0B1
:1053A000A14277D1082812D2DFE800F011040608E4
:1053B0000A0C0E1080230AE0402308E0C02306E018
:1053C000202304E0602302E0A02300E0E023B142B8
:1053D00002D14FF4585000E03620914205D0B1423E
:1053E00003D0A14201D043F00803194600F070FA3F
:1053F000AA88A2420AD098062888698802D58842DD
:1054000002D303E0884201D9298068806889B242CA
:1054100041D100F047FA002000F038FA6889401CBA
:1054200080B200F03FFA002000F030FA6889801C5A
:1054300080B200F037FA2888401EC0F30F2000F039
:1054400025FA6889C01C80B200F02CFA2878401E2A
:10545000C0B200F01BFAA88900F024FA002000F086
:1054600015FAA889401C80B200F01CFA002000F058
:105470000DFAA889801C80B200F014FA6888401EDA
:10548000C0F30F2000F002FAA889C01C80B200F01F
:1054900009FA22E028E000F005FA002000F0F6F911
:1054A000002000F0F3F92888401EC0F30F2000F020
:1054B000EDF92878401EC0B200F0E8F9A88900F0A4
:1054C000F1F9002000F0E2F9002000F0DFF968882F
:1054D000401EC0F30F2000F0D9F9A878BDE8F040D5
:1054E000401EC0B200F0D2B9F0BD000084430020DD
:1054F000F0B53F4D0C460246060AA9882846270A01
:105500004089A1F51343413B28D0A1F5A643103BA8
:1055100024D0A1F5C853633B2FD0A1F5AA43103B7B
:1055200064D100F0BFF9304600F0B0F96889401C42
:1055300080B200F0B7F9D0B200F0A8F9A88900F065
:10554000B1F9384600F0A2F9A889401C80B200F0F9
:10555000A9F9E0B2BDE8F04000F098B900F0A2F976
:10556000304600F093F9D0B200F090F9A88900F02D
:1055700099F9384600F08AF9EBE7A97929B300F0E8
:1055800091F9304600F082F9D0B200F07FF9288816
:10559000401EC0F30F2000F079F92878401EC0B2F9
:1055A00000F074F9A88900F07DF9384600F06EF932
:1055B000E0B200F06BF96888401EC0F30F2000F0E5
:1055C00065F9A878401EC0B2C4E72988891A491E27
:1055D0008AB200F067F9002000F058F9002000F0CE
:1055E00055F9100A00F052F9D0B2D9E7F0BD000029
:1055F000844300202DE9FC4F0D4604461944104415
:10560000DFF85491401E1FFA80F8491EB9F80430A3
:10561000C1F307200190280A0090A018401EC0F393
:10562000072B4846A3F5134640898FB24FEA142A48
:10563000413E0BD0A3F5A646103E07D099F8066070
:1056400041F6631C012E1CD163451AD14A4600F075
:1056500029F9504600F01AF9E0B200F017F958465F
:1056600000F014F908F0FF0000F010F9908900F044
:1056700019F9009800F00AF9E8B200F007F901986A
:1056800022E04E46634522D133888FB29B1A1B1B02
:105690009CB200F007F9200A00F0F8F8E0B200F040
:1056A000F5F82244521EC2F30F2000F0EFF8D0B2FA
:1056B00000F0ECF8B08900F0F5F8009800F0E6F89A
:1056C000E8B200F0E3F8380A00F0E0F83CE0A3F5B7
:1056D000AA4110393DD100F0E5F8504600F0D6F867
:1056E0007089401C80B200F0DDF8E0B200F0CEF826
:1056F0007089801C80B200F0D5F8584600F0C6F8DA
:105700007089C01C80B200F0CDF808F0FF0000F0F6
:10571000BDF8B08900F0C6F8009800F0B7F8B0897D
:10572000401C80B200F0BEF8E8B200F0AFF8B089DB
:10573000801C80B200F0B6F8019800F0A7F8B0899C
:10574000C01C80B200F0AEF8F8B2BDE8FC4F00F02B
:105750009DB8BDE8FC8F0000844300202DE9F84F80
:1057600082461F460E468B46580700D0012000EBAC
:10577000D700790810FB01F0203AC0B202F0FF090F
:105780000025009047E00C2F10D0102F12D0182FBA
:1057900014D0202F42D1224901EBC9104FF000084C
:1057A000445D200610D51F48026811E009EB49004E
:1057B0001D4906E01D4901EB0910EFE71C4909EB03
:1057C000C90001EB8000E9E70A9828B9154842684A
:1057D00031465046FDF70AFB6006040E1548761C5C
:1057E000B6B24088B04219D9A6EB0B00B84209D135
:1057F0000AF101001FFA80FA0E485E460188514501
:105800000CD906E008F1010000F0FF08B8F1080F1C
:10581000C7D36D1CEDB200988542B4D3BDE8F88FB4
:1058200022A800086C00002062900008D6940008AE
:10583000C69A0008844300202DE9F84F044600F082
:10584000FF0810190D46DDE90A761FFA80FA58198B
:105850001FFA80F94FF0000B11E0544502D3E8190C
:10586000444685B24D450FD23B4629462046CDF8E9
:1058700000B0FFF773FF04EB570084B2761C327858
:10588000A2F120005E28E8D9BDE8F88F01B5BDF887
:105890000000ADF80000BDF800000149088008BD17
:1058A0000000086001B5BDF80000ADF80000BDF8CB
:1058B00000000149088008BDFEFF07600248034957
:1058C000008908807047000084430020FEFF0760C5
:1058D000024A1080901C018070470000FEFF0760A4
:1058E00070B51B4886B0016841F002010160016893
:1058F00001F002010591016841F0010101600068B9
:10590000032500F0010001240590CDE90054114E5B
:1059100069463046CDE90245FBF756FC01221146A7
:105920003046FBF744FD012202213046FBF73FFDE4
:105930002002CDE9000469460748CDE90245FBF79E
:1059400043FC0022A1051046FCF742FA06B070BDE8
:1059500030380240000402400000024008B50090C8
:105960000548018BC08A491E8BB2401E82B20021BD
:10597000084600F0A5F808BD7044002000B58DB0C1
:10598000082309920490009306916846FBF748FFAC
:10599000002800D001200DB000BD00002DE9F84323
:1059A0002A4EDDF820900024757D0DB1054606E0F5
:1059B00077680D46B91A1A463B1A491E5B1E3068B5
:1059C00096F814C0DFF88880521B871A58F82CC04C
:1059D000F66900FB015006FB00C51E487F1EBFB2E2
:1059E000D0F800C000264CF4000CC0F800C00068DD
:1059F00000F4000000901848D0F800C02CF0010C12
:105A0000C0F800C006604FF0020CC0F81CC0066170
:105A10000764C0F80C90C563591A4FF4803303EB48
:105A20000242491C11434164016841F001010160D7
:105A30005A0102E0641C944202D241688907F9D5F8
:105A4000816841F002018160BDE8F8837044002064
:105A5000740000203038024000B0024010B5084BFE
:105A60001C465875A1888AB2218889B220B10128C4
:105A700001D1D9821A8310BDDA82198310BD0000CA
:105A800070440020F0B50C4F94B23D46DFF82CC0B6
:105A90002B68EA692D7D7E7D5CF8255026B103FBDD
:105AA00001004243AC52F0BD7E68301A401E03FB39
:105AB000001050432C52F0BD7044002074000020B0
:105AC0002DE9F843274EDDF820900024757D0DB1B7
:105AD000054606E077680D46B91A1A463B1A491E74
